:020000040800F2
:100000000050002089140008211300082D13000857
:1000100033130008391300083F13000800000000E4
:100020000000000000000000000000004513000870
:1000300051130008000000005D1300086913000858
:10004000D1140008D1140008D1140008D1140008FC
:10005000D1140008D1140008D1140008D1140008EC
:10006000D1140008D1140008D1140008D1140008DC
:10007000D1140008D1140008D1140008D1140008CC
:10008000D1140008D1140008D1140008D1140008BC
:10009000D1140008D1140008D1140008D1140008AC
:1000A000D1140008D1140008D1140008D11400089C
:1000B000D1140008D1140008D1140008D11400088C
:1000C000D1140008D1140008D1140008D11400087C
:1000D000D1140008D1140008D1140008D11400086C
:1000E000D1140008D1140008D11400080000000049
:1000F0000000000000000000000000000000000000
:0C01000000000000000000005FF808F1A3
:10010C0010B5054C237833B9044B13B10448AFF345
:10011C0000800123237010BD70000020000000003F
:10012C001C48000808B5034B1BB103490348AFF347
:10013C00008008BD00000000740000201C4800086E
:10014C0080B483B000AF78604FF06043D3F8803E4A
:10015C0003F00103002B13D04FF06043D3F8003EA3
:10016C0003F00103002B0BD000E000BF4FF0604305
:10017C001B68002BF9D04FF060437A68D2B21A702A
:10018C007B6818460C37BD4680BC704780B586B07E
:10019C0000AFF860B9607A6000237B6109E0BB684E
:1001AC005A1CBA601B781846FFF7CAFF7B690133EB
:1001BC007B617A697B689A42F1DB7B681846183759
:1001CC00BD4680BD80B582B000AF01F07DF900F076
:1001DC0045F800F01BFB00F087F800F0BBF800F0CE
:1001EC006DF900F0F3F900F079FA174800F082FC91
:1001FC000346002B02D04FF0FF3321E00A2001F020
:10020C00C5F9114800F060FD0346FB71FB791946F6
:10021C000E4803F0ABFBE0210B4800F0EBFB034670
:10022C0019460B4803F0A2FB074800F00DFE0346ED
:10023C001946084803F09AFB074803F00BFCFEE74D
:10024C0018460837BD4680BD980000203448000889
:10025C0044480008604800086C48000880B590B01D
:10026C0000AF07F1180328220021184603F076FB93
:10027C003B1D00221A605A609A60DA601A610123F1
:10028C00BB614FF48033FB6100233B620123BB62F3
:10029C0002237B634FF48033BB634FF4E013FB63A7
:1002AC0007F11803184601F0E9FB0346002B01D0B7
:1002BC0000F038FB0F237B600223BB600023FB6044
:1002CC004FF480633B6100237B613B1D0221184688
:1002DC0001F054FE0346002B01D000F023FB00BFBD
:1002EC004037BD4680BD000080B500AF174B184AA3
:1002FC001A60164B4FF482725A60144B00229A60AB
:10030C00124B0022DA60114B00221A610F4B0022B3
:10031C005A610E4B4FF400729A610C4B1022DA6149
:10032C000A4B00221A62094B00225A62074B002228
:10033C009A62064B0A22DA62044801F089FF0346EE
:10034C00002B01D000F0EEFA00BF80BD9800002019
:10035C000038004080B59AB000AF07F14403242266
:10036C000021184603F0FAFA07F13C0300221A6048
:10037C005A6007F1200300221A605A609A60DA6012
:10038C001A615A619A613B4620220021184603F0FB
:10039C00E5FA484B484A1A60464B00225A60454BD6
:1003AC0000229A60434B4FF6FF72DA60414B0022F9
:1003BC001A61404B00225A613E4B00229A613D4823
:1003CC0002F001FD0346002B01D000F0ABFA012333
:1003DC007B640023BB640123FB6400233B65002387
:1003EC007B650023BB650123FB6500233B66002373
:1003FC007B6607F1440319462E4802F033FD034691
:10040C00002B01D000F08EFA0023FB6300233B6429
:10041C0007F13C031946274803F0C6F90346002BA5
:10042C0001D000F07FFA60233B6200237B62002343
:10043C00BB620023FB6200233B6300237B6300232E
:10044C00BB6307F12003082219461A4802F0B6FDD7
:10045C000346002B01D000F065FA07F120030C22B3
:10046C001946144802F0AAFD0346002B01D000F0F7
:10047C0059FA00233B6000237B600023BB60002300
:10048C00FB6000233B614FF400537B610023FB6155
:10049C003B461946074803F0E5F90346002B01D00B
:1004AC0000F040FA034800F0A1FE00BF6837BD46DB
:1004BC0080BD00BF84010020002C014080B592B0AB
:1004CC0000AF07F1240324220021184603F046FA5A
:1004DC0007F11C0300221A605A603B4600221A6086
:1004EC005A609A60DA601A615A619A61364B4FF021
:1004FC0080421A60344B00225A60334B00229A60BF
:10050C00314B4FF6FF72DA602F4B00221A612E4BE3
:10051C0000229A612C4802F056FC0346002B01D0B5
:10052C0000F000FA01237B620023BB620123FB6213
:10053C0000233B6300237B630023BB630123FB632A
:10054C0000233B6400237B6407F1240319461E48F7
:10055C0002F088FC0346002B01D000F0E3F90023E5
:10056C00FB6100233B6207F11C031946164803F09C
:10057C001BF90346002B01D000F0D4F960233B603B
:10058C0000237B600023BB6000233B613B460822B9
:10059C0019460D4802F012FD0346002B01D000F065
:1005AC00C1F93B460C221946074802F007FD0346E9
:1005BC00002B01D000F0B6F9034800F017FE00BF85
:1005CC004837BD4680BD00BFCC01002080B592B03D
:1005DC0000AF07F1240324220021184603F0BEF9D2
:1005EC0007F11C0300221A605A603B4600221A6075
:1005FC005A609A60DA601A615A619A61354B364AD0
:10060C001A60344B00225A60324B00229A60314BF4
:10061C004FF6FF72DA602F4B00221A612D4B00222D
:10062C009A612C4802F0CFFB0346002B01D000F05E
:10063C0079F901237B620023BB620123FB62002357
:10064C003B6300237B630023BB630123FB63002319
:10065C003B6400237B6407F1240319461D4802F018
:10066C0001FC0346002B01D000F05CF90023FB6178
:10067C0000233B6207F11C031946164803F094F85B
:10068C000346002B01D000F04DF960233B600023A2
:10069C007B600023BB6000233B613B46082219466C
:1006AC000C4802F08BFC0346002B01D000F03AF909
:1006BC003B460C221946074802F080FC0346002BEF
:1006CC0001D000F02FF9034800F090FD00BF48372F
:1006DC00BD4680BD3C0100200004004080B58EB0BA
:1006EC0000AF07F1280300221A605A609A60DA60A2
:1006FC0007F1200300221A605A603B1D00221A6089
:10070C005A609A60DA601A615A619A613D4B3E4AAE
:10071C001A603C4B00225A603A4B00229A60394BCB
:10072C004FF6FF72DA60374B00221A61354B00220C
:10073C009A61344802F0F8FA0346002B01D000F01D
:10074C00F1F84FF48053BB6207F1280319462D488A
:10075C0002F0F2FC0346002B01D000F0E3F829482C
:10076C0002F031FB0346002B01D000F0DBF8002334
:10077C003B6200237B6207F120031946214803F0FA
:10078C0013F80346002B01D000F0CCF860237B60FB
:10079C000023BB600023FB6000237B613B1D002218
:1007AC001946184802F00AFC0346002B01D000F051
:1007BC00B9F83B1D04221946124802F0FFFB034610
:1007CC00002B01D000F0AEF83B1D082219460D4855
:1007DC0002F0F4FB0346002B01D000F0A3F83B1D04
:1007EC000C221946074802F0E9FB0346002B01D006
:1007FC0000F098F8034800F0F9FC00BF3837BD460C
:10080C0080BD00BFF00000200008004080B588B01B
:10081C0000AF07F1100300221A605A609A60DA6088
:10082C003C4B9B693B4A43F010039361394B9B69EA
:10083C0003F01003FB60FB68364B9B69354A43F0B1
:10084C0020039361334B9B6903F02003BB60BB68AF
:10085C00304B9B692F4A43F0040393612D4B9B69EA
:10086C0003F004037B607B682A4B9B69294A43F0A5
:10087C0008039361274B9B6903F008033B603B68BB
:10088C0000224FF4C041244801F0E0F8002241F26C
:10089C003041224801F0DAF84FF4C0433B610123A8
:1008AC007B610023BB610223FB6107F11003194636
:1008BC00194800F071FF10233B6100237B61012379
:1008CC00BB6107F110031946154800F065FF4FF4A2
:1008DC0086633B6101237B610023BB610223FB61C7
:1008EC0007F1100319460D4800F056FF4FF48053E2
:1008FC003B6101237B610123BB610223FB6107F197
:10090C0010031946054800F047FF00BF2037BD46CD
:10091C0080BD00BF0010024000100140000C0140DF
:10092C000008014080B400AF00BFBD4680BC7047DA
:10093C0080B584B000AF78600B46FB701346BB707B
:10094C0000224FF48051124801F080F8FB7843F0FC
:10095C000203DBB2FB7307F10F014FF0FF330122EF
:10096C00786801F0F9FCBB78FB7307F10F014FF0CD
:10097C00FF330122786801F0EFFC01224FF4805123
:10098C00034801F063F800BF1037BD4680BD00BFBF
:10099C00000C014080B586B000AFF8607A603B6017
:1009AC000B46FB7200224FF48051114801F04EF8B7
:1009BC00FB7A43F00203DBB2FB7507F117014FF032
:1009CC00FF330122F86801F0C7FC3B689AB24FF084
:1009DC00FF337968F86801F0BFFC01224FF48051B5
:1009EC00034801F033F800BF1837BD4680BD00BF87
:1009FC00000C014080B584B000AF78600B46FB70F2
:100A0C0000224FF48051104801F020F8FB78FB7362
:100A1C0007F10F014FF0FF330122786801F09CFCC5
:100A2C0007F10F014FF0FF330122786801F0D0FD80
:100A3C0001224FF48051044801F008F8FB7B184662
:100A4C001037BD4680BD00BF000C014080B586B09C
:100A5C0000AFF8607A603B600B46FB7200224FF4EB
:100A6C0080510F4800F0F2FFFB7AFB7507F117017C
:100A7C004FF0FF330122F86801F06EFC3B689AB22C
:100A8C004FF0FF337968F86801F0A2FD01224FF4B2
:100A9C008051034800F0DAFF00BF1837BD4680BD17
:100AAC00000C014080B584B000AF78600023FB815E
:100ABC00202278217868FFF73BFF002278217868A4
:100ACC00FFF736FF08E068217868FFF793FF0346CD
:100ADC0003F00103002B06D1FB890133FB81FB8959
:100AEC00002BF0D100E000BFFB8918461037BD4643
:100AFC0080BD000080B584B000AF786019228821D9
:100B0C007868FFF715FF90217868FFF773FF0346AD
:100B1C00132B3DD17868FFF7C5FF0346002B01D19D
:100B2C00FC2336E0C122D8217868FFF701FF602250
:100B3C00D0217868FFF7FCFE0422E8217868FFF7E3
:100B4C00F7FEE8217868FFF755FF034603F004032E
:100B5C00FB600BE0E8217868FFF74CFF034603F0DD
:100B6C000403FB60F9680D4802F000FFFB68002BE2
:100B7C00F0D0786800F014F82022E8217868FFF7AC
:100B8C00D7FE012280217868FFF7D2FE002300E017
:100B9C00DE2318461037BD4680BD00BF70480008E4
:100BAC0080B584B000AF7860F8217868FFF722FF39
:100BBC000346FB73FB7B23F03F03FB73FB7B9B091F
:100BCC00FB73FB7B032B60D801A252F823F000BF10
:100BDC00ED0B0008FB0B0008470C0008930C0008F9
:100BEC00D122D8217868FFF7A3FEFD234EE0D8214F
:100BFC007868FFF7FFFE034603F00203002B11D0C9
:100C0C00C922D8217868FFF793FE224B02221A6082
:100C1C00D8217868FFF7EEFE034619461E4802F00D
:100C2C00A5FE08E0D8217868FFF7E4FE03461946D4
:100C3C001A4802F09BFE022328E0D8217868FFF7BF
:100C4C00D9FE034603F00203002B09D0D8217868A3
:100C5C00FFF7D0FE03461946104802F087FE10E05D
:100C6C000C4B02221A60C922D8217868FFF760FE6B
:100C7C00D8217868FFF7BEFE03461946064802F0F5
:100C8C0075FE032302E0042300E0BC231846103752
:100C9C00BD4680BD38010020784800089048000807
:100CAC0080B400AFBFF34F8F054BDB6803F4E062F9
:100CBC000349044B1343CB60BFF34F8F00BFFDE7D9
:100CCC0000ED00E00400FA0580B584B000AF786058
:100CDC00E8217868FFF78EFE0346FB73FB7B43F03D
:100CEC000103FB73FB7B1A46E8217868FFF720FEB3
:100CFC0000BFE8217868FFF77DFE034603F001038F
:100D0C00002BF6D1C922D8217868FFF711FE00BF5D
:100D1C00C8217868FFF76EFE034603F04003002BF2
:100D2C00F6D0786800F04AF8142000F02FFC01226D
:100D3C00E0217868FFF7FCFD002318461037BD460C
:100D4C0080BD80B582B000AF7860084611461A4667
:100D5C000346FB700B46BB7013467B701DE0FA78A4
:100D6C00BB781343DBB21A46F0217868FFF7E0FD3D
:100D7C0000BFC8217868FFF73DFE03465BB2002B2D
:100D8C00F7DAF8217868FFF735FE034603F00F0316
:100D9C00042B06D17B78013B7B707B78002BDED15A
:100DAC0000E000BFF8217868FFF724FE034603F04B
:100DBC000F03DBB218460837BD4680BD80B586B040
:100DCC0000AF78600A23FB751E4A07F10C0392E80A
:100DDC00030083E8030026E007F10C02082320211E
:100DEC007868FFF7D7FD3223002210217868FFF7CF
:100DFC00A8FF8022F0217868FFF79AFD00BFC82178
:100E0C007868FFF7F7FD03465BB2002BF7DAF821A1
:100E1C007868FFF7EFFD034603F00F03042B06D1B0
:100E2C00FB7D013BFB75FB7D002BD5D100E000BFAA
:100E3C00F8217868FFF7DEFD034618461837BD46E3
:100E4C0080BD00BFA848000880B590B000AF7860A6
:100E5C004A4A07F1300392E8030083E8030007F1E4
:100E6C003002082320217868FFF794FD1022F0212E
:100E7C007868FFF75DFD012000F088FB00BFC821FA
:100E8C007868FFF7B7FD03465BB2002BF7DAF82161
:100E9C007868FFF7AFFD3223002200217868FFF756
:100EAC0050FF00BFC8217868FFF7A4FD034603F08C
:100EBC000403002B07D13223002200217868FFF7AE
:100ECC0040FFFFF7EDFEC8217868FFF793FD03465E
:100EDC0087F83B3097F83B3023F0040387F83B301E
:100EEC0097F83B301A46C8217868FFF721FD30216E
:100EFC007868FFF77FFD034687F83A3097F83A3069
:100F0C0019461F4802F032FD97F83A3007F10802F3
:100F1C0008217868FFF79AFD0023FB630BE007F1CB
:100F2C000802FB6B13441B781946164802F01EFD91
:100F3C00FB6B0133FB6397F83A30FA6B9A42EEDBAA
:100F4C00A022F0217868FFF7F3FC012000F01EFBD3
:100F5C0000BFC8217868FFF74DFD03465BB2002B3C
:100F6C00F7DAF8217868FFF745FD034603F00F0325
:100F7C00DBB218464037BD4680BD00BFC0480008F4
:100F8C00B0480008BC48000880B485B000AF154BD1
:100F9C009B69144A43F001039361124B9B6903F064
:100FAC000103BB60BB680F4BDB690E4A43F08053F7
:100FBC00D3610C4BDB6903F080537B607B680A4B7D
:100FCC005B68FB60FB6823F0E063FB60FB6843F04D
:100FDC000073FB60044AFB68536000BF1437BD46C6
:100FEC0080BC7047001002400000014080B588B002
:100FFC0000AF786007F1100300221A605A609A6003
:10100C00DA607B681B681C4A934231D11B4BDB694D
:10101C001A4A43F48043D361184BDB6903F48043D1
:10102C00FB60FB68154B9B69144A43F00803936102
:10103C00124B9B6903F00803BB60BB684FF4204361
:10104C003B6102237B610323FB6107F1100319460B
:10105C000B4800F0A1FB4FF480433B6100237B6104
:10106C000023BB6107F110031946054800F094FBFF
:10107C0000BF2037BD4680BD003800400010024044
:10108C00000C014080B58CB000AF786007F12003F4
:10109C0000221A605A609A60DA607B681B68404ACA
:1010AC00934225D13F4B9B693E4A43F400639361C5
:1010BC003C4B9B6903F40063FB61FB69394B9B69F7
:1010CC00384A43F004039361364B9B6903F00403E5
:1010DC00BB61BB694FF440733B6200237B6200230E
:1010EC00BB6207F1200319462F4800F055FB52E074
:1010FC007B681B68B3F1804F24D12A4BDB69294AEA
:10110C0043F00103D361274BDB6903F001037B61DF
:10111C007B69244B9B69234A43F004039361214B65
:10112C009B6903F004033B613B6903233B6200238F
:10113C007B620023BB6207F1200319461A4800F0BA
:10114C002BFB28E07B681B68184A934223D1154B74
:10115C00DB69144A43F00203D361124BDB6903F0E1
:10116C000203FB60FB680F4B9B690E4A43F00403C0
:10117C0093610C4B9B6903F00403BB60BB68C023F9
:10118C003B6200237B620023BB6207F120031946FC
:10119C00054800F001FB00BF3037BD4680BD00BFE5
:1011AC00002C0140001002400008014000040040E7
:1011BC0080B485B000AF78607B681B68094A9342A5
:1011CC000BD1094BDB69084A43F00403D361064B8E
:1011DC00DB6903F00403FB60FB6800BF1437BD46FA
:1011EC0080BC7047000800400010024080B58AB0F7
:1011FC0000AF786007F1180300221A605A609A60F9
:10120C00DA607B681B683D4A934219D13C4B9B6961
:10121C003B4A43F004039361394B9B6903F004038D
:10122C007B617B694FF44063BB610223FB6102234A
:10123C007B6207F118031946324800F0ADFA59E009
:10124C007B681B68B3F1804F18D12D4B9B692C4ADE
:10125C0043F0040393612A4B9B6903F004033B6145
:10126C003B690C23BB610223FB6102237B6207F108
:10127C0018031946234800F08FFA3BE07B681B6883
:10128C00214A934218D11E4B9B691D4A43F0080317
:10129C0093611B4B9B6903F00803FB60FB68032302
:1012AC00BB610223FB6102237B6207F11803194621
:1012BC00164800F071FA1DE07B681B68144A9342D3
:1012CC0018D10F4B9B690E4A43F0080393610C4BEA
:1012DC009B6903F00803BB60BB684FF47073BB6180
:1012EC000223FB6102237B6207F1180319460748AE
:1012FC0000F052FA00BF2837BD4680BD002C0140DB
:10130C00001002400008014000040040000C0140A5
:10131C000008004080B400AF00BFBD4680BC7047E1
:10132C0080B400AFFEE780B400AFFEE780B400AF3E
:10133C00FEE780B400AFFEE780B400AF00BFBD464F
:10134C0080BC704780B400AF00BFBD4680BC704706
:10135C0080B400AF00BFBD4680BC704780B500AF05
:10136C0000F0F8F800BF80BD80B586B000AFF86023
:10137C00B9607A6000237B610AE0AFF3008001461C
:10138C00BB685A1CBA60CAB21A707B6901337B61A4
:10139C007A697B689A42F0DB7B6818461837BD4641
:1013AC0080BD80B483B000AF78604FF0FF33184637
:1013BC000C37BD4680BC704780B483B000AF7860FA
:1013CC0039603B684FF400525A60002318460C37C2
:1013DC00BD4680BC704780B483B000AF78600123F9
:1013EC0018460C37BD4680BC704780B485B000AF42
:1013FC00F860B9607A60002318461437BD4680BC8B
:10140C007047000080B586B000AF7860144A154B69
:10141C00D31A7B617B693B61134B1B68002B02D198
:10142C00114B124A1A60104B1A687B6813443A69C4
:10143C009A4207D202F068FA02460C2313604FF06E
:10144C00FF3309E0084B1B68FB60074B1A687B688D
:10145C001344054A1360FB6818461837BD4680BD17
:10146C0000500020000400008C000020200200200E
:10147C0080B400AF00BFBD4680BC7047002103E0C4
:10148C000B4B5B58435004310A480B4B42189A42A1
:10149C00F6D30A4A02E0002342F8043B084B9A4276
:1014AC00F9D3FFF7E5FF02F035FAFEF78BFE704734
:1014BC008C49000800000020700000207000002003
:1014CC001C020020FEE7000080B500AF084B1B6833
:1014DC00074A43F010031360032000F029F90020A1
:1014EC0000F008F8FFF750FD0023184680BD00BF40
:1014FC000020024080B582B000AF7860124B1A68B1
:10150C00124B1B7819464FF47A73B3FBF1F3B2FB11
:10151C00F3F3184600F033F90346002B01D00123F6
:10152C000EE07B680F2B0AD8002279684FF0FF3051
:10153C0000F009F9064A7B681360002300E00123E0
:10154C0018460837BD4680BD00000020080000206A
:10155C000400002080B400AF054B1B781A46054BE5
:10156C001B681344034A136000BFBD4680BC704720
:10157C00080000201402002080B400AF024B1B684E
:10158C001846BD4680BC70471402002080B584B05C
:10159C0000AF7860FFF7F0FFB8607B68FB60FB681A
:1015AC00B3F1FF3F05D0094B1B781A46FB68134477
:1015BC00FB6000BFFFF7E0FF0246BB68D31AFA6876
:1015CC009A42F7D800BF1037BD4680BD08000020F6
:1015DC0080B485B000AF78607B6803F00703FB60D4
:1015EC000C4BDB68BB60BA684FF6FF031340BB6063
:1015FC00FB681A02BB68134343F0BF6343F4003328
:10160C00BB60044ABB68D36000BF1437BD4680BCC6
:10161C00704700BF00ED00E080B400AF044BDB6806
:10162C001B0A03F007031846BD4680BC704700BF79
:10163C0000ED00E080B483B000AF03463960FB716D
:10164C0097F90730002B0ADB3B68DAB20C4997F9A3
:10165C0007301201D2B20B4483F800230AE03B6836
:10166C00DAB20849FB7903F00F03043B1201D2B242
:10167C000B441A7600BF0C37BD4680BC704700BFC8
:10168C0000E100E000ED00E080B489B000AFF8604C
:10169C00B9607A60FB6803F00703FB61FB69C3F177
:1016AC000703042B28BF0423BB61FB690433062BFF
:1016BC0002D9FB69033B00E000237B614FF0FF3252
:1016CC00BB6902FA03F3DA43BB681A407B699A40A0
:1016DC004FF0FF317B6901FA03F3D9437B680B4070
:1016EC00134318462437BD4680BC704780B582B082
:1016FC0000AF78607B68013BB3F1807F01D301239D
:10170C000FE00A4A7B68013B53600F214FF0FF301A
:10171C00FFF790FF054B00229A60044B07221A60DA
:10172C00002318460837BD4680BD00BF10E000E01E
:10173C0080B582B000AF78607868FFF749FF00BFD2
:10174C000837BD4680BD80B586B000AF0346B96092
:10175C007A60FB7300237B61FFF75EFF78617A6828
:10176C00B9687869FFF790FF024697F90F30114678
:10177C001846FFF75FFF00BF1837BD4680BD80B528
:10178C0082B000AF78607868FFF7B0FF0346184668
:10179C000837BD4680BD000080B48BB000AF7860C8
:1017AC00396000237B6200233B6227E101227B6AC4
:1017BC0002FA03F3FB613B681B68FA691340BB61D7
:1017CC00BA69FB699A4240F016813B685B68122B40
:1017DC0034D0122B0DD8022B2BD0022B04D8002B7B
:1017EC0031D0012B1CD048E0032B43D0112B1BD044
:1017FC0043E0894A934226D0874A934206D8874AC7
:10180C00934220D0864A93421DD036E0854A9342BB
:10181C0019D0854A934216D0844A934213D02CE0B7
:10182C003B68DB683B6228E03B68DB6804333B6267
:10183C0023E03B68DB6808333B621EE03B68DB68F7
:10184C000C333B6219E03B689B68002B02D10423EC
:10185C003B6212E03B689B68012B05D108233B627D
:10186C007B68FA691A6108E008233B627B68FA69B5
:10187C005A6102E000233B6200BFBB69FF2B01D819
:10188C007B6801E07B6804337B61BB69FF2B02D86A
:10189C007B6A9B0002E07B6A083B9B003B617B6997
:1018AC001A680F213B6901FA03F3DB431A40396ACA
:1018BC003B6901FA03F31A437B691A603B685B6866
:1018CC0003F08053002B00F09680594B9B69584ACB
:1018DC0043F001039361564B9B6903F00103BB601A
:1018EC00BB68544A7B6A9B08023352F82330FB6076
:1018FC007B6A03F003039B000F2202FA03F3DB4322
:10190C00FA681340FB607B684B4A934213D07B68A8
:10191C004A4A93420DD07B68494A934207D07B6870
:10192C00484A934201D1032306E0042304E0022336
:10193C0002E0012300E000237A6A02F00302920025
:10194C009340FA681343FB603A497B6A9B08023365
:10195C00FA6841F823203B685B6803F48033002B62
:10196C0006D0394B1A683849BB6913430B6006E043
:10197C00354B1A68BB69DB43334913400B603B683A
:10198C005B6803F40033002B06D02F4B5A682E49AA
:10199C00BB6913434B6006E02B4B5A68BB69DB43B6
:1019AC00294913404B603B685B6803F48013002BA0
:1019BC0006D0254B9A682449BB6913438B6006E01B
:1019CC00214B9A68BB69DB431F4913408B603B6812
:1019DC005B6803F40013002B06D01B4BDA681A4922
:1019EC00BB691343CB6006E0174BDA68BB69DB437A
:1019FC0015491340CB607B6A01337B623B681A68E4
:101A0C007B6A22FA03F3002B7FF4D0AE00BF2C3795
:101A1C00BD4680BC704700BF0000211000001110B3
:101A2C0000001210000031100000321000002210D3
:101A3C00001002400000014000080140000C014071
:101A4C0000100140001401400004014080B483B038
:101A5C0000AF78600B467B8013467B707B78002B45
:101A6C0003D07A887B681A6103E07B881A047B6850
:101A7C001A6100BF0C37BD4680BC704780B586B07C
:101A8C0000AF78607B68002B01D101236CE27B688E
:101A9C001B6803F00103002B00F08780924B5B68FE
:101AAC0003F00C03042B0CD08F4B5B6803F00C037E
:101ABC00082B12D18C4B5B6803F48033B3F5803F59
:101ACC000BD1894B1B6803F40033002B6CD07B6863
:101ADC005B68002B68D1012346E27B685B68B3F539
:101AEC00803F06D1804B1B687F4A43F480331360E0
:101AFC002EE07B685B68002B0CD17B4B1B687A4A11
:101B0C0023F480331360784B1B68774A23F48023CB
:101B1C0013601DE07B685B68B3F5A02F0CD1724B92
:101B2C001B68714A43F4802313606F4B1B686E4A29
:101B3C0043F4803313600BE06B4B1B686A4A23F44D
:101B4C0080331360684B1B68674A23F4802313604F
:101B5C007B685B68002B13D0FFF70EFD386108E043
:101B6C00FFF70AFD02463B69D31A642B01D9032304
:101B7C00FAE15D4B1B6803F40033002BF0D014E04A
:101B8C00FFF7FAFC386108E0FFF7F6FC02463B6908
:101B9C00D31A642B01D90323E6E1534B1B6803F4DE
:101BAC000033002BF0D100E000BF7B681B6803F012
:101BBC000203002B63D04C4B5B6803F00C03002B2F
:101BCC000BD0494B5B6803F00C03082B1CD1464B24
:101BDC005B6803F48033002B16D1434B1B6803F076
:101BEC000203002B05D07B681B69012B01D001235C
:101BFC00BAE13D4B1B6823F0F8027B685B69DB00A4
:101C0C00394913430B603AE07B681B69002B20D0E9
:101C1C00364B01221A60FFF7AFFC386108E0FFF782
:101C2C00ABFC02463B69D31A022B01D903239BE17F
:101C3C002D4B1B6803F00203002BF0D02A4B1B68C2
:101C4C0023F0F8027B685B69DB00274913430B60C8
:101C5C0015E0264B00221A60FFF78EFC386108E075
:101C6C00FFF78AFC02463B69D31A022B01D90323E6
:101C7C007AE11D4B1B6803F00203002BF0D17B684B
:101C8C001B6803F00803002B3AD07B689B69002B80
:101C9C0019D0174B01221A60FFF76EFC386108E06F
:101CAC00FFF76AFC02463B69D31A022B01D90323C6
:101CBC005AE10D4B5B6A03F00203002BF0D00120BC
:101CCC0000F0A8FA1CE00A4B00221A60FFF754FC43
:101CDC0038610FE0FFF750FC02463B69D31A022B28
:101CEC0008D9032340E100BF00100240000042422B
:101CFC00800442429E4B5B6A03F00203002BE9D145
:101D0C007B681B6803F00403002B00F0A680002303
:101D1C00FB75974BDB6903F08053002B0DD1944B73
:101D2C00DB69934A43F08053D361914BDB6903F039
:101D3C008053BB60BB680123FB758E4B1B6803F49F
:101D4C008073002B18D18B4B1B688A4A43F4807329
:101D5C001360FFF711FC386108E0FFF70DFC024639
:101D6C003B69D31A642B01D90323FDE0814B1B681B
:101D7C0003F48073002BF0D07B68DB68012B06D159
:101D8C007B4B1B6A7A4A43F0010313622DE07B689C
:101D9C00DB68002B0CD1764B1B6A754A23F00103D0
:101DAC001362734B1B6A724A23F0040313621CE028
:101DBC007B68DB68052B0CD16D4B1B6A6C4A43F0BE
:101DCC00040313626A4B1B6A694A43F001031362F2
:101DDC000BE0674B1B6A664A23F001031362644BEA
:101DEC001B6A634A23F0040313627B68DB68002BD5
:101DFC0015D0FFF7C1FB38610AE0FFF7BDFB0246C7
:101E0C003B69D31A41F28832934201D90323ABE0E8
:101E1C00574B1B6A03F00203002BEED014E0FFF7C4
:101E2C00ABFB38610AE0FFF7A7FB02463B69D31A0C
:101E3C0041F28832934201D9032395E04C4B1B6A43
:101E4C0003F00203002BEED1FB7D012B05D1484B97
:101E5C00DB69474A23F08053D3617B68DB69002B35
:101E6C0000F08180424B5B6803F00C03082B61D0BF
:101E7C007B68DB69022B46D13F4B00221A60FFF7CF
:101E8C007BFB386108E0FFF777FB02463B69D31A0E
:101E9C00022B01D9032367E0354B1B6803F0007359
:101EAC00002BF0D17B681B6AB3F5803F08D1304B17
:101EBC005B6823F400327B689B682D4913434B60AD
:101ECC002B4B5B6823F474127B68196A7B685B6A22
:101EDC000B43274913434B60274B01221A60FFF732
:101EEC004BFB386108E0FFF747FB02463B69D31A0E
:101EFC00022B01D9032337E01D4B1B6803F0007341
:101F0C00002BF0D02FE01C4B00221A60FFF734FBA3
:101F1C00386108E0FFF730FB02463B69D31A022B0D
:101F2C0001D9032320E0124B1B6803F00073002B34
:101F3C00F0D118E07B68DB69012B01D1012313E0A0
:101F4C000B4B5B68FB60FB6803F480327B681B6A9D
:101F5C009A4206D1FB6803F470127B685B6A9A4262
:101F6C0001D0012300E0002318461837BD4680BD80
:101F7C0000100240007000406000424280B584B006
:101F8C0000AF786039607B68002B01D10123D0E071
:101F9C006A4B1B6803F007033A689A4210D9674BE7
:101FAC001B6823F0070265493B6813430B60634BC6
:101FBC001B6803F007033A689A4201D00123B8E08A
:101FCC007B681B6803F00203002B20D07B681B6826
:101FDC0003F00403002B05D0594B5B68584A43F4BB
:101FEC00E06353607B681B6803F00803002B05D08B
:101FFC00534B5B68524A43F460535360504B5B68DD
:10200C0023F0F0027B689B684D4913434B607B685F
:10201C001B6803F00103002B40D07B685B68012B2D
:10202C0007D1474B1B6803F40033002B15D1012358
:10203C007FE07B685B68022B07D1414B1B6803F088
:10204C000073002B09D1012373E03D4B1B6803F097
:10205C000203002B01D101236BE0394B5B6823F0A9
:10206C0003027B685B68364913434B60FFF784FAC5
:10207C00F8600AE0FFF780FA0246FB68D31A41F2D7
:10208C008832934201D9032353E02D4B5B6803F054
:10209C000C027B685B689B009A42EBD1274B1B6858
:1020AC0003F007033A689A4210D2244B1B6823F0C2
:1020BC00070222493B6813430B60204B1B6803F05B
:1020CC0007033A689A4201D0012332E07B681B680F
:1020DC0003F00403002B08D0194B5B6823F4E06277
:1020EC007B68DB68164913434B607B681B6803F005
:1020FC000803002B09D0124B5B6823F460527B68F9
:10210C001B69DB000E4913434B6000F021F80146BC
:10211C000B4B5B681B0903F00F030A4AD35C21FAD3
:10212C0003F3094A1360094B1B681846FFF7E2F9E1
:10213C00002318461037BD4680BD00BF002002406A
:10214C0000100240DC4800080000002004000020C1
:10215C0090B48AB000AF2A4B3C1D0FCB84E80F0023
:10216C00284B1B883B800023FB610023BB610023B1
:10217C007B6200237B6100233B62234B5B68FB612A
:10218C00FB6903F00C03042B02D0082B03D02DE0C9
:10219C001E4B3B622DE0FB699B0C03F00F0307F118
:1021AC002802134413F8243C7B61FB6903F480334D
:1021BC00002B13D0144B5B685B0C03F0010307F18D
:1021CC002802134413F8283CBB617B690F4A02FBBD
:1021DC0003F2BB69B2FBF3F37B6204E07B690C4A4C
:1021EC0002FB03F37B627B6A3B6202E0074B3B62C0
:1021FC0000BF3B6A18462837BD4690BC704700BFED
:10220C00C8480008D84800080010024000127A00A4
:10221C0000093D0080B485B000AF78600A4B1B68A4
:10222C000A4AA2FB03235B0A7A6802FB03F3FB60F6
:10223C0000BFFB685A1EFA60002BF9D100BF14379F
:10224C00BD4680BC704700BF00000020D34D62101B
:10225C0080B582B000AF78607B68002B01D1012380
:10226C0076E07B685B6A002B08D17B685B68B3F512
:10227C00827F09D07B680022DA6105E07B6800224E
:10228C001A617B6800225A617B6800229A627B6823
:10229C0093F85130DBB2002B06D17B68002283F817
:1022AC0050207868FEF7A2FE7B68022283F851204A
:1022BC007B681B681A687B681B6822F040021A60F6
:1022CC007B685B6803F482727B689B6803F404434D
:1022DC001A437B68DB6803F400631A437B681B6951
:1022EC0003F002031A437B685B6903F001031A4392
:1022FC007B689B6903F400731A437B68DB6903F00A
:10230C0038031A437B681B6A03F0800342EA03011B
:10231C007B689B6A03F400527B681B680A431A6053
:10232C007B689B691A0C7B681B6802F004025A607C
:10233C007B681B68DA697B681B6822F40062DA61CF
:10234C007B6800225A657B68012283F851200023A8
:10235C0018460837BD4680BD80B588B000AFF86020
:10236C00B9603B601346FB800023FB77FB6893F856
:10237C005030012B01D1022326E1FB68012283F8A6
:10238C005020FFF7F9F8B861FB88FB82FB6893F8E3
:10239C005130DBB2012B02D00223FB770BE1BB687F
:1023AC00002B02D0FB88002B02D10123FB7702E12A
:1023BC00FB68032283F85120FB6800225A65FB68F6
:1023CC00BA681A63FB68FA889A86FB68FA88DA8618
:1023DC00FB6800229A63FB6800229A87FB68002244
:1023EC00DA87FB6800225A64FB6800221A64FB68D7
:1023FC009B68B3F5004F0FD1FB681B681A68FB682C
:10240C001B6822F040021A60FB681B681A68FB68A4
:10241C001B6842F480421A60FB681B681B6803F05F
:10242C004003402B07D0FB681B681A68FB681B68CD
:10243C0042F040021A60FB68DB68B3F5006F4BD1C9
:10244C00FB685B68002B02D0FB8A012B3ED1FB683A
:10245C001B6B1A88FB681B68DA60FB681B6B9A1C89
:10246C00FB681A63FB68DB8E9BB2013B9AB2FB687C
:10247C00DA862BE0FB681B689B6803F00203022BD7
:10248C0012D1FB681B6B1A88FB681B68DA60FB684F
:10249C001B6B9A1CFB681A63FB68DB8E9BB2013BBF
:1024AC009AB2FB68DA8611E0FFF766F80246BB6960
:1024BC00D31A3A689A4203D83B68B3F1FF3F02D172
:1024CC003B68002B02D10323FB7774E0FB68DB8EA7
:1024DC009BB2002BCED14CE0FB685B68002B02D08A
:1024EC00FB8A012B40D1FB681A6BFB681B680C3311
:1024FC0012781A70FB681B6B5A1CFB681A63FB681A
:10250C00DB8E9BB2013B9AB2FB68DA862CE0FB684F
:10251C001B689B6803F00203022B13D1FB681A6B38
:10252C00FB681B680C3312781A70FB681B6B5A1C07
:10253C00FB681A63FB68DB8E9BB2013B9AB2FB68AB
:10254C00DA8611E0FFF718F80246BB69D31A3A682D
:10255C009A4203D83B68B3F1FF3F02D13B68002B92
:10256C0002D10323FB7726E0FB68DB8E9BB2002BAA
:10257C00CDD1BA693968F86800F0B8FB0346002B76
:10258C0002D0FB6820225A65FB689B68002B0AD19D
:10259C0000233B61FB681B68DB683B61FB681B68C5
:1025AC009B683B613B69FB685B6D002B02D0012390
:1025BC00FB7700E000BFFB68012283F85120FB6829
:1025CC00002283F85020FB7F18462037BD4680BD83
:1025DC0080B588B002AFF860B9603B601346FB80F1
:1025EC000023FB75FB685B68B3F5827F12D1FB6837
:1025FC009B68002B0ED1FB68042283F85120FA88CB
:10260C003B6800931346BA68B968F86800F0F1F8B3
:10261C000346EAE0FB6893F85030012B01D102230A
:10262C00E3E0FB68012283F85020FEF7A5FF386138
:10263C00FB6893F85130DBB2012B02D00223FB75FF
:10264C00CAE0BB68002B02D0FB88002B02D101230F
:10265C00FB75C1E0FB68042283F85120FB68002263
:10266C005A65FB68BA689A63FB68FA889A87FB68B4
:10267C00FA88DA87FB6800221A63FB6800229A86C4
:10268C00FB680022DA86FB6800221A64FB680022D1
:10269C005A64FB689B68B3F5004F0FD1FB681B684D
:1026AC001A68FB681B6822F040021A60FB681B6802
:1026BC001A68FB681B6822F480421A60FB681B686E
:1026CC001B6803F04003402B07D0FB681B681A689B
:1026DC00FB681B6842F040021A60FB68DB68002B49
:1026EC0062D12EE0FB681B689B6803F00103012B91
:1026FC0015D1FB681B6803F10C02FB689B6B12780D
:10270C00D2B21A70FB689B6B5A1CFB689A63FB680D
:10271C00DB8F9BB2013B9AB2FB68DA8711E0FEF7C4
:10272C002BFF02463B69D31A3A689A4203D83B689E
:10273C00B3F1FF3F02D13B68002B02D10323FB75A1
:10274C004AE0FB68DB8F9BB2002BCBD131E0FB68FE
:10275C001B689B6803F00103012B13D1FB681B68FA
:10276C00DA68FB689B6B92B21A80FB689B6B9A1CB5
:10277C00FB689A63FB68DB8F9BB2013B9AB2FB68E8
:10278C00DA8711E0FEF7F8FE02463B69D31A3A6885
:10279C009A4203D83B68B3F1FF3F02D13B68002B50
:1027AC0002D10323FB7517E0FB68DB8F9BB2002B78
:1027BC00CDD13A693968F86800F046FA0346002B27
:1027CC0002D0FB6820225A65FB685B6D002B02D09F
:1027DC000123FB7500E000BFFB68012283F8512048
:1027EC00FB68002283F85020FB7D18461837BD4645
:1027FC0080BD80B58CB000AFF860B9607A607B802A
:10280C000123FB62002387F82B30FB6893F85030D0
:10281C00012B01D102238AE1FB68012283F85020AD
:10282C00FEF7AAFE7862FB6893F8513087F82330E4
:10283C00FB685B68FB617B887B8397F82330012BFB
:10284C000FD0FB69B3F5827F07D1FB689B68002B27
:10285C0003D197F82330042B03D0022387F82B30B5
:10286C005BE1BB68002B05D07B68002B02D07B881A
:10287C00002B03D1012387F82B304EE1FB6893F832
:10288C005130DBB2042B03D0FB68052283F85120B6
:10289C00FB6800225A65FB687A689A63FB687A8841
:1028AC00DA87FB687A889A87FB68BA681A63FB68D0
:1028BC007A88DA86FB687A889A86FB6800221A6422
:1028CC00FB6800225A64FB681B681B6803F040031A
:1028DC00402B07D0FB681B681A68FB681B6842F02A
:1028EC0040021A60FB68DB68B3F5006F78D1FB68B7
:1028FC005B68002B02D07B8B012B66D1FB681B6BBA
:10290C001A88FB681B68DA60FB681B6B9A1CFB68F7
:10291C001A63FB68DB8E9BB2013B9AB2FB68DA86CA
:10292C0053E0FB681B689B6803F00203022B1BD16E
:10293C00FB68DB8E9BB2002B16D0FB6A012B13D1EC
:10294C00FB681B6B1A88FB681B68DA60FB681B6BE7
:10295C009A1CFB681A63FB68DB8E9BB2013B9AB234
:10296C00FB68DA860023FB62FB681B689B6803F03C
:10297C000103012B19D1FB68DB8F9BB2002B14D008
:10298C00FB681B68DA68FB689B6B92B21A80FB6869
:10299C009B6B9A1CFB689A63FB68DB8F9BB2013BB9
:1029AC009AB2FB68DA870123FB62FEF7E5FD02466B
:1029BC007B6AD31ABA6B9A4207D8BB6BB3F1FF3F51
:1029CC0003D0032387F82B30A7E0FB68DB8E9BB288
:1029DC00002BA6D1FB68DB8F9BB2002BA1D17CE036
:1029EC00FB685B68002B02D07B8B012B6BD1FB68E7
:1029FC001A6BFB681B680C3312781A70FB681B6B24
:102A0C005A1CFB681A63FB68DB8E9BB2013B9AB2C3
:102A1C00FB68DA8657E0FB681B689B6803F00203CF
:102A2C00022B1CD1FB68DB8E9BB2002B17D0FB6AF0
:102A3C00012B14D1FB681A6BFB681B680C331278E2
:102A4C001A70FB681B6B5A1CFB681A63FB68DB8EE5
:102A5C009BB2013B9AB2FB68DA860023FB62FB68EF
:102A6C001B689B6803F00103012B19D1FB68DB8FFA
:102A7C009BB2002B14D0FB681B68DA68FB689B6B5D
:102A8C00D2B21A70FB689B6B5A1CFB689A63FB688A
:102A9C00DB8F9BB2013B9AB2FB68DA870123FB62A6
:102AAC00FEF76AFD02467B6AD31ABA6B9A4203D8C8
:102ABC00BB6BB3F1FF3F02D1BB6B002B03D10323E4
:102ACC0087F82B3029E0FB68DB8E9BB2002BA2D160
:102ADC00FB68DB8F9BB2002B9DD17A6AB96BF868CF
:102AEC0000F004F90346002B06D0012387F82B30A5
:102AFC00FB6820225A6510E0FB689B68002B0BD109
:102B0C0000237B61FB681B68DB687B61FB681B68CF
:102B1C009B687B617B6900E000BFFB68012283F846
:102B2C005120FB68002283F8502097F82B30184670
:102B3C003037BD4680BD000080B588B000AFF8606E
:102B4C00B9603B601346FB71FEF716FD0246BB6A8B
:102B5C009B1A3A681344FB61FEF70EFDB861394BC2
:102B6C001B685B011B0DFA6902FB03F37B6154E0EC
:102B7C003B68B3F1FF3F50D0FEF7FEFC0246BB6949
:102B8C00D31AFA699A4202D9FB69002B3DD1FB6832
:102B9C001B685A68FB681B6822F0E0025A60FB68ED
:102BAC005B68B3F5827F11D1FB689B68B3F5004F6E
:102BBC0004D0FB689B68B3F5806F07D1FB681B687A
:102BCC001A68FB681B6822F040021A60FB689B6A5B
:102BDC00B3F5005F0FD1FB681B681A68FB681B68B4
:102BEC0022F400521A60FB681B681A68FB681B68A9
:102BFC0042F400521A60FB68012283F85120FB68F2
:102C0C00002283F85020032317E07B69002B01D1AD
:102C1C000023FB617B69013B7B61FB681B689A6845
:102C2C00BB681340BA689A420CBF01230023DBB285
:102C3C001A46FB799A429BD1002318462037BD4691
:102C4C0080BD00BF0000002080B586B002AFF860E8
:102C5C00B9607A60FB685B68B3F5827F11D1FB6861
:102C6C009B68B3F5004F04D0FB689B68B3F5806F8D
:102C7C0007D1FB681B681A68FB681B6822F04002CE
:102C8C001A60FB685B68B3F5827F17D1FB689B68A1
:102C9C00B3F5806F12D17B680093BB6800220121D1
:102CAC00F868FFF749FF0346002B1AD0FB685B6DF1
:102CBC0043F02002FB685A65032313E07B68009302
:102CCC00BB6800228021F868FFF736FF0346002B13
:102CDC0007D0FB685B6D43F02002FB685A65032349
:102CEC0000E0002318461037BD4680BD80B586B085
:102CFC0002AFF860B9607A607B680093BB68002211
:102D0C008021F868FFF718FF0346002B07D0FB68FB
:102D1C005B6D43F02002FB685A65032300E000233F
:102D2C0018461037BD4680BD80B582B000AF7860C4
:102D3C007B68002B01D1012341E07B6893F83D3087
:102D4C00DBB2002B06D17B68002283F83C2078682C
:102D5C00FEF72EFA7B68022283F83D207B681A6806
:102D6C007B6804331946104600F09EFA7B680122FA
:102D7C0083F846207B68012283F83E207B68012281
:102D8C0083F83F207B68012283F840207B68012276
:102D9C0083F841207B68012283F842207B68012262
:102DAC0083F843207B68012283F844207B6801224E
:102DBC0083F845207B68012283F83D2000231846C8
:102DCC000837BD4680BD80B582B000AF78607B68A7
:102DDC00002B01D1012341E07B6893F83D30DBB23D
:102DEC00002B06D17B68002283F83C207868FEF724
:102DFC0049F97B68022283F83D207B681A687B685E
:102E0C0004331946104600F04FFA7B68012283F810
:102E1C0046207B68012283F83E207B68012283F8E0
:102E2C003F207B68012283F840207B68012283F8D5
:102E3C0041207B68012283F842207B68012283F8C1
:102E4C0043207B68012283F844207B68012283F8AD
:102E5C0045207B68012283F83D2000231846083763
:102E6C00BD4680BD80B586B000AF786039607B68A8
:102E7C00002B01D1012393E07B6893F83D30DBB24A
:102E8C00002B06D17B68002283F83C20786800F088
:102E9C008BF87B68022283F83D207B681B689B685B
:102EAC007A68126823F4804323F0070393607B68ED
:102EBC001A687B6804331946104600F0F5F97B68F4
:102ECC001B689B687B617B681B689B693B617B68AB
:102EDC001B681B6AFB603B681B687A6913437B6148
:102EEC003B6923F4407323F003033B613B689A680E
:102EFC003B689B691B0213433A6913433B613B6973
:102F0C0023F4406323F00C033B613B6923F47043CF
:102F1C0023F0F0033B613B68DA683B68DB691B021A
:102F2C0013433A6913433B613B681B691A013B68C5
:102F3C001B6A1B0313433A6913433B61FB6823F081
:102F4C002203FB603B685A683B685B691B011343B7
:102F5C00FA681343FB607B681B687A699A607B682C
:102F6C001B683A699A617B681B68FA681A627B680D
:102F7C00012283F846207B68012283F83E207B687F
:102F8C00012283F83F207B68012283F842207B6872
:102F9C00012283F843207B68012283F83D20002323
:102FAC0018461837BD4680BD80B483B000AF78603A
:102FBC0000BF0C37BD4680BC7047000080B584B0A4
:102FCC0000AFF860B9607A60FB6893F83C30012B75
:102FDC0001D10223ACE0FB68012283F83C207B6822
:102FEC000C2B00F29F8001A252F823F02D30000828
:102FFC003131000831310008313100086D300008E2
:10300C00313100083131000831310008AF3000088F
:10301C00313100083131000831310008EF3000083F
:10302C00FB681B68B968184600F0A0F9FB681B68C0
:10303C009A69FB681B6842F008029A61FB681B687E
:10304C009A69FB681B6822F004029A61FB681B6892
:10305C009969BB681A69FB681B680A439A6162E04C
:10306C00FB681B68B968184600F0E6F9FB681B683A
:10307C009A69FB681B6842F400629A61FB681B68E2
:10308C009A69FB681B6822F480629A61FB681B6872
:10309C009969BB681B691A02FB681B680A439A6131
:1030AC0041E0FB681B68B968184600F02FFAFB6812
:1030BC001B68DA69FB681B6842F00802DA61FB687E
:1030CC001B68DA69FB681B6822F00402DA61FB6892
:1030DC001B68D969BB681A69FB681B680A43DA610B
:1030EC0021E0FB681B68B968184600F079FAFB68A8
:1030FC001B68DA69FB681B6842F40062DA61FB68E2
:10310C001B68DA69FB681B6822F48062DA61FB6871
:10311C001B68D969BB681B691A02FB681B680A43E8
:10312C00DA6100E000BFFB68002283F83C2000233A
:10313C0018461037BD4680BD80B584B000AF7860AE
:10314C0039607B6893F83C30012B01D10223A6E057
:10315C007B68012283F83C207B68022283F83D20A7
:10316C007B681B689B68FB60FB6823F07703FB6044
:10317C00FB6823F47F43FB607B681B68FA689A60EA
:10318C003B681B68402B67D0402B0BD8102B73D09F
:10319C00102B02D8002B6FD078E0202B6CD0302B6A
:1031AC006AD073E0702B0DD0702B04D8502B33D019
:1031BC00602B41D06AE0B3F5805F66D0B3F5005F59
:1031CC0017D063E07B6818683B6899683B685A685D
:1031DC003B68DB6800F0C9FA7B681B689B68FB6086
:1031EC00FB6843F07703FB607B681B68FA689A60A6
:1031FC004CE07B6818683B6899683B685A683B6888
:10320C00DB6800F0B2FA7B681B689A687B681B6805
:10321C0042F480429A6039E07B6818683B685968D0
:10322C003B68DB681A4600F029FA7B681B68502162
:10323C00184600F080FA29E07B6818683B685968EA
:10324C003B68DB681A4600F047FA7B681B68602114
:10325C00184600F070FA19E07B6818683B685968EA
:10326C003B68DB681A4600F009FA7B681B68402152
:10327C00184600F060FA09E07B681A683B681B6826
:10328C001946104600F057FA00E000BF7B68012297
:10329C0083F83D207B68002283F83C2000231846ED
:1032AC001037BD4680BD000080B485B000AF78609B
:1032BC0039607B681B68FB607B68294A93420BD0A2
:1032CC007B68B3F1804F07D07B68264A934203D0CA
:1032DC007B68254A934208D1FB6823F07003FB609E
:1032EC003B685B68FA681343FB607B681C4A93423B
:1032FC000BD07B68B3F1804F07D07B68194A93429F
:10330C0003D07B68184A934208D1FB6823F44073BE
:10331C00FB603B68DB68FA681343FB60FB6823F0D7
:10332C0080023B685B691343FB607B68FA681A6038
:10333C003B689A687B68DA623B681A687B689A62B9
:10334C007B68074A934203D13B681A697B681A630E
:10335C007B6801225A6100BF1437BD4680BC7047A0
:10336C00002C0140000400400008004080B487B0ED
:10337C0000AF786039607B681B6A23F001027B68C0
:10338C001A627B681B6A7B617B685B683B617B684C
:10339C009B69FB60FB6823F07003FB60FB6823F008
:1033AC000303FB603B681B68FA681343FB607B6993
:1033BC0023F002037B613B689B687A6913437B6152
:1033CC007B681C4A93420CD17B6923F008037B6118
:1033DC003B68DB687A6913437B617B6923F00403E8
:1033EC007B617B68134A934211D13B6923F4807350
:1033FC003B613B6923F400733B613B685B693A6951
:10340C0013433B613B689B693A6913433B617B689F
:10341C003A695A607B68FA689A613B685A687B68BB
:10342C005A637B687A691A6200BF1C37BD4680BC40
:10343C00704700BF002C014080B487B000AF7860AB
:10344C0039607B681B6A23F010027B681A627B6808
:10345C001B6A7B617B685B683B617B689B69FB607B
:10346C00FB6823F4E043FB60FB6823F44073FB60D0
:10347C003B681B681B02FA681343FB607B6923F0F3
:10348C0020037B613B689B681B017A6913437B615A
:10349C007B681D4A93420DD17B6923F080037B61CD
:1034AC003B68DB681B017A6913437B617B6923F002
:1034BC0040037B617B68144A934213D13B6923F42C
:1034CC0080633B613B6923F400633B613B685B6950
:1034DC009B003A6913433B613B689B699B003A69CB
:1034EC0013433B617B683A695A607B68FA689A615E
:1034FC003B685A687B689A637B687A691A6200BF7A
:10350C001C37BD4680BC7047002C014080B487B08E
:10351C0000AF786039607B681B6A23F480727B682B
:10352C001A627B681B6A7B617B685B683B617B68AA
:10353C00DB69FB60FB6823F07003FB60FB6823F026
:10354C000303FB603B681B68FA681343FB607B69F1
:10355C0023F400737B613B689B681B027A691343FD
:10356C007B617B681D4A93420DD17B6923F4006318
:10357C007B613B68DB681B027A6913437B617B6967
:10358C0023F480637B617B68144A934213D13B69BB
:10359C0023F480533B613B6923F400533B613B684C
:1035AC005B691B013A6913433B613B689B691B01D7
:1035BC003A6913433B617B683A695A607B68FA68E5
:1035CC00DA613B685A687B68DA637B687A691A62ED
:1035DC0000BF1C37BD4680BC704700BF002C0140AB
:1035EC0080B487B000AF786039607B681B6A23F4C5
:1035FC0080527B681A627B681B6A3B617B685B68E4
:10360C007B617B68DB69FB60FB6823F4E043FB6058
:10361C00FB6823F44073FB603B681B681B02FA6871
:10362C001343FB603B6923F400533B613B689B688D
:10363C001B033A6913433B617B680F4A934209D1E0
:10364C007B6923F480437B613B685B699B017A69EE
:10365C0013437B617B687A695A607B68FA68DA612C
:10366C003B685A687B681A647B683A691A6200BFC7
:10367C001C37BD4680BC7047002C014080B487B01D
:10368C0000AFF860B9607A60FB681B6A7B61FB680D
:10369C001B6A23F00102FB681A62FB689B693B61A1
:1036AC003B6923F0F0033B617B681B013A691343D0
:1036BC003B617B6923F00A037B617A69BB68134326
:1036CC007B61FB683A699A61FB687A691A6200BF90
:1036DC001C37BD4680BC704780B487B000AFF86023
:1036EC00B9607A60FB681B6A23F01002FB681A62EF
:1036FC00FB689B697B61FB681B6A3B617B6923F4FC
:10370C0070437B617B681B037A6913437B613B6964
:10371C0023F0A0033B61BB681B013A6913433B6177
:10372C00FB687A699A61FB683A691A6200BF1C37B8
:10373C00BD4680BC704780B485B000AF78603960FE
:10374C007B689B68FB60FB6823F07003FB603A6846
:10375C00FB68134343F00703FB607B68FA689A60CD
:10376C0000BF1437BD4680BC704780B487B000AF33
:10377C00F860B9607A603B60FB689B687B617B6931
:10378C0023F47F437B613B681A027B681A43BB6856
:10379C0013437A6913437B61FB687A699A6000BFB3
:1037AC001C37BD4680BC704780B485B000AF7860D4
:1037BC0039607B6893F83C30012B01D1022346E041
:1037CC007B68012283F83C207B68022283F83D2031
:1037DC007B681B685B68FB607B681B689B68BB60D5
:1037EC00FB6823F07003FB603B681B68FA681343AB
:1037FC00FB607B681B68FA685A607B681B68164A1A
:10380C0093420ED07B681B68B3F1804F09D07B6864
:10381C001B68124A934204D07B681B68104A93427F
:10382C000CD1BB6823F08003BB603B685B68BA6853
:10383C001343BB607B681B68BA689A607B68012283
:10384C0083F83D207B68002283F83C200023184637
:10385C001437BD4680BC7047002C0140000400406A
:10386C000008004080B485B000AF78603960002358
:10387C00FB607B6893F83C30012B01D102233DE0C7
:10388C007B68012283F83C20FB6823F0FF023B6835
:10389C00DB681343FB60FB6823F440723B689B6856
:1038AC001343FB60FB6823F480623B685B68134343
:1038BC00FB60FB6823F400623B681B681343FB60EE
:1038CC00FB6823F480523B681B691343FB60FB6865
:1038DC0023F400523B685B691343FB60FB6823F4E1
:1038EC0080423B68DB691343FB607B681B68FA68AA
:1038FC005A647B68002283F83C2000231846143756
:10390C00BD4680BC70470000014B1868704700BF73
:10391C000C00002070B500250C4E0D4CA41BA410FF
:10392C00A54209D100F074FF00250A4E0A4CA41BD5
:10393C00A410A54205D170BD56F825309847013525
:10394C00EEE756F8253098470135F2E78449000830
:10395C008449000884490008884900080346024449
:10396C00934200D1704703F8011BF9E70FB40A4BDF
:10397C0013B51C6824B1A36913B9204600F022FAD0
:10398C0005AB049AA1682046019300F0D7FB02B066
:10399C00BDE8104004B070470C00002070B50E4616
:1039AC00054618B183690BB900F00CFAAB69AC6829
:1039BC0013B9284600F006FA234B9C4217D16C68C9
:1039CC00A3891B071DD52369DBB1013EA36816F83B
:1039DC00011F013BA360E9B9002B2EDA22460A2114
:1039EC00284600F03FF8013011D00A2011E0174BA7
:1039FC009C4201D1AC68E3E7154B9C4208BFEC68D4
:103A0C00DEE72146284600F07FF80028DDD04FF095
:103A1C00FF3070BD002B04DAA2699A4206DC0A2939
:103A2C0004D023685A1C22601970CFE7224628461E
:103A3C0000F018F80130C9D1E9E70A2023685A1CB4
:103A4C0022601870E5E700BF1049000830490008F3
:103A5C00F0480008024B01461868FFF79FBF00BFF3
:103A6C000C000020F8B50E461446054618B18369C3
:103A7C000BB900F0A7F9214B9C422AD16C68A369C1
:103A8C00A360A3891A072ED5236963B32369206821
:103A9C00F6B2C01A63693746834204DC21462846D5
:103AAC0000F026F928BBA3680130013BA360236812
:103ABC005A1C22601E706369834204D0A389DB0701
:103ACC0019D50A2E17D12146284600F011F990B1CC
:103ADC000FE00B4B9C4201D1AC68D0E7094B9C42E8
:103AEC0008BFEC68CBE72146284600F00DF800280B
:103AFC00CCD04FF0FF373846F8BD00BF1049000856
:103B0C0030490008F0480008324B70B51D68064675
:103B1C000C4625B1AB6913B9284600F053F92E4B6E
:103B2C009C420FD16C68B4F90C309AB215072CD4A6
:103B3C00D00611D40922326043F04003A3814FF028
:103B4C00FF303EE0254B9C4201D1AC68EBE7244BA7
:103B5C009C4208BFEC68E6E7510712D5616B41B196
:103B6C0004F14403994202D0304600F019FA0023C4
:103B7C006363A38923F02403A38100236360236977
:103B8C002360A38943F00803A38123694BB9A3895C
:103B9C0003F42073B3F5007F03D02146304600F0C8
:103BAC00BFF9A28912F001030CD00023A360636952
:103BBC005B42A361236953B9B4F90C3013F0800054
:103BCC00BAD170BD920758BF6369A360F2E70020B9
:103BDC00F7E700BF0C00002010490008304900082E
:103BEC00F04800088A892DE9F041054610070C467B
:103BFC0058D44B68002B05DC0B6C002B02DC00202E
:103C0C00BDE8F081E66A002EF9D0002312F4805250
:103C1C002F68216A2B6032D0606DA3895A0705D5B5
:103C2C006368C01A636B0BB1236CC01A0023024685
:103C3C00E66A216A2846B047431CA38906D1296845
:103C4C001D2948D8294ACA40D60744D500226260AB
:103C5C002269D904226004D5421C01D12B6803B916
:103C6C006065616B2F600029C9D004F1440399424F
:103C7C0002D0284600F094F900206063C0E70123CD
:103C8C002846B047411CC8D12B68002BC5D01D2B32
:103C9C0001D0162B01D12F60B1E7A38943F040036B
:103CAC00A381ADE70F69002FA9D0930718BF00239C
:103CBC000E6808BF4B69A6EB07080F608B60B8F164
:103CCC00000F9CDD43463A46216A2846A66AB04757
:103CDC00002806DCA38943F04003A3814FF0FF309A
:103CEC008EE70744A8EB0008E9E700BF010040207D
:103CFC0038B50B6905460C46DBB118B183690BB9B5
:103D0C0000F060F80C4B9C4209D16C68B4F90C3093
:103D1C007BB121462846BDE83840FFF763BF074B0F
:103D2C009C4201D1AC68F1E7054B9C4208BFEC68A2
:103D3C00ECE7002038BD00BF1049000830490008EE
:103D4C00F0480008002310B50446C0E90033836036
:103D5C0081814366C281C0E904338361194608221C
:103D6C005C30FFF7FBFD054B24626362044BA362DE
:103D7C00044BE362044B236310BD00BFA54600084F
:103D8C00C7460008FF46000823470008014900F019
:103D9C0085B800BFFD3C000870B568254A1E554328
:103DAC000E4605F1740100F047F9044640B10021BC
:103DBC00C0E900160C30A06005F16802FFF7CEFDDB
:103DCC00204670BD836910B5044633BBC0E912337D
:103DDC000365124B124A1B688262984204BF01238E
:103DEC00836100F01FF86060204600F01BF8A060B3
:103DFC00204600F017F80022E06004216068FFF70D
:103E0C00A1FF01220921A068FFF79CFF02221221C9
:103E1C00E068FFF797FF0123A36110BDEC48000891
:103E2C00993D0008F8B51B4B07461E68B36913B9DA
:103E3C003046FFF7C7FF4836D6E90134013B03D5BE
:103E4C00336833B13668F7E7B4F90C506DB16834A8
:103E5C00F4E704213846FFF79FFF30600028F1D1CA
:103E6C000C2304463B602046F8BD0B4B6566C4E949
:103E7C000055A560C4E90335C4E905550822294657
:103E8C0004F15C00FFF76AFDC4E90D55C4E9125555
:103E9C00E9E700BFEC4800080100FFFF2DE9F843FB
:103EAC0080468946002600F1480414B93046BDE826
:103EBC00F883D4E90175013F01D52468F5E7AB8996
:103ECC00012B07D9B5F90E30013303D029464046F2
:103EDC00C84706436835EEE770B50E46B1F90E10CB
:103EEC0096B0002914461D4607DA00232B60B389CF
:103EFC001A0610D44FF480630EE06A4600F032FCD0
:103F0C000028F2DB019A02F47042A2F500535A42E7
:103F1C005A412A60EEE740230020236016B070BDA2
:103F2C008B8973B59D0706460C4607D504F14703EC
:103F3C00236023610123636102B070BD01AB6A464B
:103F4C00FFF7CAFF00990546304600F075F848B9EE
:103F5C00B4F90C309A05EFD423F0030343F00203B9
:103F6C00A381E3E70D4BB362A389206043F0800388
:103F7C00A381009B20616361019B5BB1B4F90E10BE
:103F8C00304600F001FC28B1A38923F0030343F071
:103F9C000103A381A3891D43A581CDE7993D0008A9
:103FAC0038B50546002943D051F8043C0C1F002BB2
:103FBC00B8BFE41800F018FC1E4A1368104633B959
:103FCC00636014602846BDE8384000F00EBCA34284
:103FDC000BD921686218934201BF1A685B685218AA
:103FEC00226063600460EDE713465A680AB1A2428E
:103FFC00FAD919685818A0420BD1206801445818F6
:10400C0082421960DED110685268014419605A600E
:10401C00D8E702D90C232B60D4E7206821188A42F8
:10402C0001BF116852680918216062605C60C9E7C1
:10403C0038BD00BF9000002070B5CD1C25F00305E5
:10404C0008350C2D38BF0C25002D064601DBA94286
:10405C0003D90C233360002070BD00F0C5FB214A4E
:10406C001468214691B9204C23681BB9304600F0E6
:10407C0003FB20602946304600F0FEFA431C24D195
:10408C000C233046336000F0B0FBE4E70B685B1B9D
:10409C0018D40B2B0FD90B60CC18CD50304600F038
:1040AC00A4FB04F10B00231D20F00700C31AD3D08E
:1040BC005A42E250D0E74B688C4216BF63601360E3
:1040CC000C46EBE70C464968CCE7C41C24F003040F
:1040DC00A04205D0211A304600F0CEFA0130CFD0E4
:1040EC002560DBE79000002094000020936810B45A
:1040FC00013B002B936007DA9469A34201DB0A2988
:10410C0002D110BCFFF7AEBC1368581C10601970BC
:10411C00084610BC7047F8B506460F461446D5182D
:10412C00AC4201D1002007E03A4614F8011B30469E
:10413C00FFF7DCFF431CF3D1F8BD00002DE9F04F75
:10414C000C469DB017461D46064618B183690BB93F
:10415C00FFF738FE7C4B9C4258D17468A389180732
:10416C005ED52369002B5BD00023099320238DF8A7
:10417C00293030234FF0010B8DF82A300395B846C7
:10418C00454615F8013B0BB1252B54D1B8EB070A6A
:10419C000BD053463A4621463046FFF7BCFF013060
:1041AC0000F0C280099B5344099398F80030002B0F
:1041BC0000F0BA8000234FF0FF32CDE905230493C1
:1041CC0007938DF853301A93A846052218F8011B53
:1041DC005E4800F0FBFA049B78BBD90644BF202252
:1041EC008DF853201A0744BF2B228DF853202A78C0
:1041FC002A2A2AD0A84600200A25079A414611F8F7
:10420C00013B303B092B69D960B324E0504B9C42F5
:10421C0001D1B468A2E74F4B9C4208BFF4689DE7FC
:10422C0021463046FFF770FC00289DD04FF0FF3040
:10423C001DB0BDE8F08FA846A2E7444A4546801A57
:10424C000BFA00F018430490BEE7039A111D126894
:10425C000391002A01DB079204E0524243F002036F
:10426C000792049398F800302E2B0ED198F8013059
:10427C002A2B38D1039B08F102081A1D1B680392E4
:10428C00002BB8BF4FF0FF330593334D032298F842
:10429C000010284600F09AFA40B14023401B03FA64
:1042AC0000F0049B08F101080343049398F80010F4
:1042BC0006222A4808F101078DF8281000F086FA2A
:1042CC00002837D0264B1BBB039B073323F0070377
:1042DC0008330393099B4B44099350E705FB0232C7
:1042EC00012088468AE700230A25194608F10108AF
:1042FC000593404610F8012B303A092A03D9002BBC
:10430C00C3D00591C1E705FB012101238046F0E7ED
:10431C0003AB00932246134B04A93046AFF3008045
:10432C00B0F1FF3F8146D5D1A3895B063FF57EAF47
:10433C0009987DE703AB009322460A4B04A930464B
:10434C0000F088F8ECE700BF10490008504900085D
:10435C0030490008F0480008564900085A4900083E
:10436C0000000000234100082DE9F04791461F464C
:10437C008A680B6906469342B8BF1346C9F80030E9
:10438C0091F843200C46DDF8208012B10133C9F8B6
:10439C0000302368990642BFD9F800300233C9F8BF
:1043AC000030256815F0060507D104F1190AE368F9
:1043BC00D9F800209B1AAB4229DC94F843302268D0
:1043CC00003318BF012392062ED404F14302394660
:1043DC003046C047013021D02368E56803F006035E
:1043EC00042B18BF0025D9F800204FF0000908BF96
:1043FC00AD1AA368226908BF25EAE5759342C4BFCC
:10440C009B1AED181A344D451AD1002008E00123EF
:10441C00524639463046C047013003D14FF0FF3089
:10442C00BDE8F0870135C2E73020E11881F8430080
:10443C005A1C94F845102244023382F84310C4E706
:10444C000123224639463046C0470130E6D009F1F7
:10445C000109D8E72DE9F04301F1430C0C46097E24
:10446C0085B06E291746064698460C9A00F0B38024
:10447C0022D8632936D00AD8002900F0B9805829EF
:10448C0000F0838004F1420584F8421032E0642984
:10449C0001D06929F6D120681368050603F10401DF
:1044AC002AD51B681160002B03DA2D225B4284F89D
:1044BC0043206F480A2239E0732900F09D8008D808
:1044CC006F2920D07029DDD1236843F020032360AD
:1044DC0003E0752917D07829D4D17823654884F85E
:1044EC00453055E0136804F14205191D1B68116035
:1044FC0084F8423001238CE01B6810F0400F1160EF
:10450C0018BF1BB2CFE713682568181D106028066A
:10451C0001D51B6802E06806FBD51B886F2914BF08
:10452C000A2208225248002184F843106568002DA5
:10453C00A560C0F29580216821F004012160002B58
:10454C003DD1002D40F08E806546082A0BD12368A2
:10455C00DB0708D5236962689A42DEBF302305F871
:10456C00013C05F1FF35ACEB05032361CDF8008070
:10457C003B4603AA21463046FFF7F6FE01304DD1EB
:10458C004FF0FF3005B0BDE8F083394884F8451092
:10459C00136821681D1D1B6815600A060BD5CA0718
:1045AC0044BF41F0200121601BB9226822F0200297
:1045BC0022601022B7E74D0648BF9BB2EFE7654675
:1045CC00B3FBF2F102FB1133C35C05F8013D0B4662
:1045DC000029F5D1B9E713682568181D61691060C9
:1045EC0028061B6801D5196002E06A06FBD5198004
:1045FC00002365462361B9E71368191D11601D6816
:10460C0062680021284600F0E1F808B1401B6060A8
:10461C0063682361002384F84330A7E723692A46A3
:10462C0039463046C0470130AAD023689B0713D4C3
:10463C00E068039B9842B8BF1846A3E701234A469B
:10464C0039463046C04701309AD00135E368039AA9
:10465C009B1AAB42F2DCEBE7002504F11909F5E7F4
:10466C00002BACD1037804F1420584F842306CE79E
:10467C00614900087249000838B50023054C05460D
:10468C0008462360FCF7BEFE431C02D1236803B12D
:10469C002B6038BD1802002010B50C46B1F90E1075
:1046AC0000F0A4F80028ABBF636DA3891B1823F49A
:1046BC008053ACBF6365A38110BD2DE9F0411F464B
:1046CC008B890546DB050C46164605D502230022D0
:1046DC00B1F90E1000F068F8A389324623F4805328
:1046EC00A381B4F90E103B462846BDE8F04100F01A
:1046FC0017B810B50C46B1F90E1000F055F8431C64
:10470C00A38915BF606523F4805343F48053A381C0
:10471C0018BFA38110BDB1F90E1000F013B8000042
:10472C0038B50546084611460022054C22601A464B
:10473C00FBF72CFD431C02D1236803B12B6038BD61
:10474C001802002038B50023054C054608462360A6
:10475C00FCF727FE431C02D1236803B12B6038BD44
:10476C001802002038B50023064C054608461146B1
:10477C002360FCF721FE431C02D1236803B12B609C
:10478C0038BD00BF1802002038B50023054C054683
:10479C0008462360FCF71FFE431C02D1236803B1BB
:1047AC002B6038BD1802002038B505460846114666
:1047BC000022054C22601A46FCF717FE431C02D15E
:1047CC00236803B12B6038BD1802002010B5C9B2A4
:1047DC0002449042034601D1002303E01C780130CF
:1047EC008C42F6D1184610BD7047704738B5054657
:1047FC00084611460022054C22601A46FCF7B4FD0F
:10480C00431C02D1236803B12B6038BD1802002071
:10481C00F8B500BFF8BC08BC9E467047F8B500BFA1
:08482C00F8BC08BC9E46704771
:1048340066696E616C204852534C3A2025780A0010
:10484400446F6E65212073657420616464726573BE
:104854007320746F2025780A0000000066696E3AA0
:104864002025780A000000006D65680069203D205D
:1048740025780A00442B206869676820616E6420EB
:10488400442D206C6F773A2025780A00442B206C45
:104894006F7720616E6420442D20686967683A2030
:1048A40025780A000005010000000000524356422A
:1048B400433A2025780A000025780A008006000281
:1048C4000000300002030405060708090A0B0C0D5A
:1048D4000E0F101001020000000000000000000094
:1048E400010203040607080910000020000000006C
:1048F40000000000000000000000000000000000B4
:1049040000000000000000000000000000000000A3
:104914000000000000000000000000000000000093
:104924000000000000000000000000000000000083
:104934000000000000000000000000000000000073
:10494400000000000000000000000000232D302BB8
:104954002000686C4C00656667454647003031327C
:1049640033343536373839414243444546003031D3
:104974003233343536373839616263646566000032
:0449840031010008F5
:044988000D01000815
:10498C000024F400100000000100000010000020C2
:10499C00000000001049000830490008F0480008E9
:1049AC0000000000000000000000000000000000FB
:1049BC0000000000000000000000000000000000EB
:1049CC0000000000000000000000000000000000DB
:1049DC0000000000000000000000000000000000CB
:1049EC0000000000000000000000000000000000BB
:040000050800148952
:00000001FF
